:100000000C9434000C9451000C9451000C94510049
:100010000C9451000C9451000C9451000C9451001C
:100020000C9451000C9451000C9451000C9451000C
:100030000C9451000C9451000C9451000C945100FC
:100040000C9451000C9451000C9451000C945100EC
:100050000C949F000C94CD000C9451000C94510012
:100060000C9490010C94510011241FBECFEFD8E0E6
:10007000DEBFCDBF11E0A0E0B1E0E8E8F9E002C0EA
:1000800005900D92A431B107D9F721E0A4E1B1E0C8
:1000900001C01D92A132B207E1F70E94A0000C94AA
:1000A000C2040C940000E8E7F0E080E484838FEE63
:1000B00082838681816086830895CF93DF930F9238
:1000C000CDB7DEB78983898180931401ECE7F0E036
:1000D000808190911401887F892B80830F90DF911C
:1000E000CF9108958CE284B981E78CBD08958EBDCF
:1000F0000DB407FEFDCF8EB508950C94770080E017
:1001000091E00895E0ECF0E095838483108288E923
:10011000818386E0828308959091C00095FFFCCF93
:100120008093C60008950E948C0090E080E00895BE
:100130008091C00087FFFCCF8091C600089518957C
:100140000E947F00EC0187E690E00E9482000E94FE
:10015000530078940FE011E08091170190911801FD
:100160009F938F931F930F93DF93CF930E94FD0173
:1001700080911501909116019F938F931F930F9378
:10018000DF93CF930E94FD018DB79EB70C960FB6FB
:10019000F8949EBF0FBE8DBFDFCF1F920F920FB698
:1001A0000F9211242F933F934F935F936F937F93FD
:1001B0008F939F93AF93BF93EF93FF938091190118
:1001C000882399F0813001F1FF91EF91BF91AF91B8
:1001D0009F918F917F916F915F914F913F912F915F
:1001E0000F900FBE0F901F901895809178009091FE
:1001F0007900909318018093170181E00E945D00BF
:1002000081E080931901E0CF80917800909179008E
:10021000909316018093150180E00E945D0010927A
:100220001901D2CF97B5981708F088BD9091B30007
:10023000981710F08093B4000895559A83E284BD16
:100240008BE085BD8CE787BD86E988BD0895539A0C
:10025000E0EBF0E083E280838BE0818389EF8383AE
:1002600086E98483089584E88093B8008FEF8093B3
:10027000BB0084E08093BC0008958091BC00817035
:1002800008958091BC0080FDFCCF80910E010895FF
:10029000FC018091BC0080FDFCCF60931C0180813B
:1002A00080931D0180FF15C010921B0188EF809381
:1002B0000E0185EA8093BC000895DF01A80FB91FE5
:1002C0002C91DC01A35EBE4F2C9301968617A8F3F8
:1002D000EBCF90E080E0F9CF8091BC0080FDFCCFB7
:1002E00010921B0188EF80930E0185EA8093BC0079
:1002F00008952091BC0020FDFCCF20911B0120FF20
:1003000008C02DE131E0FC01D9018A2F821B86173C
:1003100020F080911B01817008958D918193F5CF1C
:100320001F921FB61F9211242F938F939F93EF93C9
:10033000FF938091B900883309F45DC010F58831CE
:1003400069F050F48830C1F18031B1F18091B90089
:1003500080930E0184E025C08832C1F7E0911A0134
:1003600080911C01E81708F03FC081E08E0F809358
:100370001A01F0E0E35EFE4F80818093BB0085E8C8
:1003800010C08035E1F0883539F18034F9F62091DC
:100390001A0180911C018150990B281719067CF7CE
:1003A00085EC8093BC00FF91EF919F918F912F91ED
:1003B0001F901FBE1F90189510921A01CFCFE09189
:1003C0001A0181E08E0F80931A018091BB00F0E04A
:1003D000E35EFE4F8083DBCF8091BB00E0911A018A
:1003E000F0E0E35EFE4F808380911B01816080938B
:1003F0001B0184E9D6CF85EAD4CFB0E0A0E0E3E0EA
:10040000F2E00C949B04AE01475F5F4F6F817885EB
:100410008D819E810E940F02E2E00C94B704AFE050
:10042000B0E0E5E1F2E00C948B047C013B018A0131
:10043000DC0117961C921E92169713968C9181FFE1
:10044000C3C19AE0292EFE0131964F01D7011396C0
:100450009C91F30193FD859193FF81913F01882346
:1004600009F448C1853239F493FD859193FF819158
:100470003F01853229F4B70190E00E94FD03E6CFE9
:10048000B12C412C512CBFE1B51538F08B3209F15C
:1004900088F4803201F1833221F157FC3AC020ED1B
:1004A000280F2A3040F556FE1FC0B29C200D1124A3
:1004B000B22E06C08D3291F0803379F7689450F8EF
:1004C000F30193FD859193FF81913F018111DBCF72
:1004D00020C0689451F8689452F8F2CF689453F8A9
:1004E000EFCF689454F8ECCF429C200D1124422E9B
:1004F000689455F8E5CF8E3229F456FCFBC0689419
:1005000056F8DECF8C3619F4689457F8D9CF883670
:10051000B9F2982F9F7D95549330C0F08336A1F1A6
:100520008337C1F1833509F05BC0D801CD90DD90F0
:100530008D016B2D70E056FC02C06FEF7FEFC6019E
:100540000E94E7035C01689457F80AC00C5F1F4FD4
:10055000EFE3E983AA24A394B12C6401E89457F84B
:1005600053FC04C04A141B0409F018F5342CA114E0
:10057000B10431F5332009F469CFB70180E290E08E
:100580000E94FD033A94F6CFD8018C9189830E5FC7
:100590001F4FE0CFF801C190D1908F016B2D70E01B
:1005A00056FC02C06FEF7FEFC6010E94F2035C01B0
:1005B000D5CFB70180E290E00E94FD034A94D2CFEC
:1005C000F60157FC859157FE81916F01B70190E0CC
:1005D0000E94FD0331103A94B1E0AB1AB108C7CFC5
:1005E000843619F0893609F074C0F80157FE6AC0E4
:1005F00061917191819191918F01E52DEF76DE2EC0
:1006000097FF09C090958095709561957F4F8F4FAA
:100610009F4F6894D7F82AE030E0A4010E942D048F
:10062000C82EC818AC2C5D2CD6FE0CC0E89450F82F
:10063000CB1440F4D4FE05C0D2FC03C05D2D5E7E19
:10064000552EAB2C54FE98C0FE01EC0DF11D80819F
:10065000803309F08AC0652D697E562E752D78701D
:10066000372E53FC98C050FE92C0BC2CA41418F432
:100670004C0CB42CBA1854FE94C0B70180E390E03F
:100680000E94FD0352FE09C088E790E051FE02C0BF
:1006900088E590E0B7010E94FD03CB1408F48DC0FB
:1006A000CA94D12C8FEFC81AD80AC80CD91CD6010D
:1006B0008E916D01B70190E00E94FD038C149D04A2
:1006C000B1F758CF61917191072E000C880B990BEF
:1006D00093CFD52CE894D4F82AE030E0853739F16F
:1006E000F52DF97FDF2E8037A9F058F48835A9F071
:1006F0008F36D9F0F701868197812F96E2E10C942D
:10070000A7048837B9F7D4FE02C06894D2F820E174
:1007100030E00DC06894D4F8F6CF54FE03C02F2FFC
:100720002660D22E20E132E002C028E030E0F8015D
:10073000D7FE15C041915191619171914C875D87B0
:100740006E877F878F01A4016C857D858E859F854F
:100750000E942D04C82EC818E894D7F863CF819161
:100760009191AC0170E060E0E9CF52FC02C0A3942B
:1007700075CFA394A39472CF852D867809F46ECF9C
:10078000F6CFB70180E290E00E94FD03A394A41489
:10079000C0F3312C70CF342C3A18A41408F46BCF6A
:1007A000F8CF852D867809F478CF8BE251FE80E270
:1007B00057FC8DE2B70190E06ECFB70180E390E087
:1007C0000E94FD03BA9469CF8FEF9FEF96CFFC0193
:1007D0000590615070400110D8F7809590958E0F6C
:1007E0009F1F0895FC016150704001900110D8F7DF
:1007F000809590958E0F9F1F08950F931F93CF9311
:10080000DF93182F092FEB018B8181FD09C01FEFAA
:100810000FEF812F902FDF91CF911F910F910895AE
:1008200082FF14C02E813F818C819D81281739075A
:100830003CF4E881F981CF01019699838883108384
:100840008E819F8101969F838E83E3CFE885F98512
:10085000812F0995892BA1F3DACFFA01AA27283035
:1008600051F1203181F1E8946F936E7F6E5F7F4F7D
:100870008F4F9F4FAF4FB1E03ED0B4E03CD0670FF9
:10088000781F891F9A1FA11D680F791F8A1F911D4C
:10089000A11D6A0F711D811D911DA11D20D009F49C
:1008A00068943F912AE0269F11243019305D3193DE
:1008B000DEF6CF010895462F4770405D4193B3E0C7
:1008C0000FD0C9F7F6CF462F4F70405D4A3318F06E
:1008D000495D31FD4052419302D0A9F7EACFB4E01F
:1008E000A6959795879577956795BA95C9F70097D7
:1008F0006105710508959B01AC010A2E0694579578
:10090000479537952795BA95C9F7620F731F841FCE
:10091000951FA01D08952F923F924F925F926F9264
:100920007F928F929F92AF92BF92CF92DF92EF927F
:10093000FF920F931F93CF93DF93CDB7DEB7CA1B00
:10094000DB0B0FB6F894DEBF0FBECDBF09942A882B
:10095000398848885F846E847D848C849B84AA84D3
:10096000B984C884DF80EE80FD800C811B81AA8160
:10097000B981CE0FD11D0FB6F894DEBF0FBECDBF2B
:08098000ED010895F894FFCF8A
:100988000000000200000000930000000000F825AD
:04099800640A0D00E0
:00000001FF
