:100000000C9434000C9451000C9451000C94510049
:100010000C9451000C9451000C9451000C9451001C
:100020000C9451000C9451000C9451000C9451000C
:100030000C9451000C9451000C9451000C945100FC
:100040000C9451000C9451000C9451000C945100EC
:100050000C9426010C9471010C9451000C945100E5
:100060000C9434020C94510011241FBECFEFD8E041
:10007000DEBFCDBF11E0A0E0B1E0E2E4FEE002C0EF
:1000800005900D92AE32B107D9F721E0AEE2B1E0B2
:1000900001C01D92AB33B207E1F70E9427010C9417
:1000A0001F070C940000E8E7F0E080E484838FEE03
:1000B00082838681816086838781826087830895B9
:1000C000CF93DF930F92CDB7DEB789838981809379
:1000D0002E01ECE7F0E0808190912E01887F892B42
:1000E00080830F90DF91CF910895EF92FF920F934D
:1000F0001F93CF93DF9300D000D000D00F92CDB7E5
:10010000DEB78D839E83CB01B0E0A0E089839A8324
:10011000AB83BC83CD010E9413032EEF3FEF4FEE64
:100120005BE369837A838B839C8369817A818B818A
:100130009C810E94C5037B018C0120E030E0A90175
:100140006983FA828B831C8369817A818B819C818C
:100150000E940E0318160CF049C0AD81BE81CD017E
:10016000B0E0A0E089839A83AB83BC83BC01CD015E
:100170000E94130323E13CE84BE85CE369837A8344
:100180008B839C8369817A818B819C810E94C503CA
:100190009701A80169837A838B839C8369817A8123
:1001A0008B819C810E94A102B1E0BF831D8220E06F
:1001B00030E0A90169837A838B839C8369817A818A
:1001C0008B819C810E940E0318160CF41F828F8174
:1001D0009D8127960FB6F894DEBF0FBECDBFDF918D
:1001E000CF911F910F91FF90EF90089581E090E0E3
:1001F000F0CF8CE284B981E78CBD08958EBD0DB43B
:1002000007FEFDCF8EB508950C94FE0080E091E0CE
:100210000895E0ECF0E095838483108288E981837F
:1002200086E0828308959091C00095FFFCCF809373
:10023000C60008950E94130190E080E00895809127
:10024000C00087FFFCCF8091C600089518950E94DA
:100250000601D82FC92F87E690E00E9409010E946D
:10026000530078940FE011E02FEF39E688E1215038
:1002700030408040E1F700C0000080913101909152
:1002800032019F938F931F930F93CF93DF930E941D
:10029000320480912F01909130019F938F931F938F
:1002A0000F93CF93DF930E94320460912F017091DE
:1002B000300180913101909132010E9475002DB77B
:1002C0003EB7245F3F4F0FB6F8943EBF0FBE2DBF21
:1002D000019751F66D2F7C2F84E191E00E94440438
:1002E000C3CF1F920F920FB60F9211242F933F93FB
:1002F0004F935F936F937F938F939F93AF93BF932E
:10030000EF93FF9380913301882399F0813001F1BD
:10031000FF91EF91BF91AF919F918F917F916F91DD
:100320005F914F913F912F910F900FBE0F901F90B3
:100330001895809178009091790090933201809384
:10034000310181E00E94600081E080933301E0CFC1
:1003500080917800909179009093300180932F01E3
:1003600080E00E94600010923301D2CF97B59817B9
:1003700008F088BD9091B300981710F08093B400F6
:100380000895559A83E284BD8BE085BD8CE787BDD7
:1003900086E988BD0895539AE0EBF0E083E280831C
:1003A0008BE0818389EF838386E98483089584E8E1
:1003B0008093B8008FEF8093BB0084E08093BC00F3
:1003C00008958091BC00817008958091BC0080FDEB
:1003D000FCCF80910E010895FC018091BC0080FD4E
:1003E000FCCF6093360180818093370180FF15C078
:1003F0001092350188EF80930E0185EA8093BC004E
:100400000895DF01A80FB91F2C91DC01A95CBE4F34
:100410002C9301968617A8F3EBCF90E080E0F9CFFC
:100420008091BC0080FDFCCF1092350188EF809355
:100430000E0185EA8093BC0008952091BC0020FD48
:10044000FCCF2091350120FF08C027E331E0FC01FB
:10045000D9018A2F821B861720F080913501817087
:1004600008958D918193F5CF1F921FB61F9211248D
:100470002F938F939F93EF93FF938091B9008833CD
:1004800009F45DC010F5883169F050F48830C1F18D
:100490008031B1F18091B90080930E0184E025C0D4
:1004A0008832C1F7E091340180913601E81708F0F5
:1004B0003FC081E08E0F80933401F0E0E95CFE4F95
:1004C00080818093BB0085E810C08035E1F08835DD
:1004D00039F18034F9F62091340180913601815050
:1004E000990B281719067CF785EC8093BC00FF91C7
:1004F000EF919F918F912F911F901FBE1F90189584
:1005000010923401CFCFE091340181E08E0F8093BF
:1005100034018091BB00F0E0E95CFE4F8083DBCFCB
:100520008091BB00E0913401F0E0E95CFE4F8083F4
:100530008091350181608093350184E9D6CF85EAC9
:10054000D4CF5058BB27AA270E94B9020C948B0322
:100550000E947D0338F00E94840320F039F49F3F0D
:1005600019F426F40C947A030EF4E095E7FB0C944E
:100570007403E92F0E949C0358F3BA1762077307AC
:100580008407950720F079F4A6F50C94BE030EF4C9
:10059000E0950B2EBA2FA02D0B01B90190010C0193
:1005A000CA01A0011124FF27591B99F0593F50F4AB
:1005B000503E68F11A16F040A22F232F342F442703
:1005C000585FF3CF469537952795A795F0405395FB
:1005D000C9F77EF41F16BA0B620B730B840BBAF0CB
:1005E0009150A1F0FF0FBB1F661F771F881FC2F736
:1005F0000EC0BA0F621F731F841F48F4879577954A
:100600006795B795F7959E3F08F0B0CF9395880F03
:1006100008F09927EE0F9795879508950E9450034B
:1006200008F481E00895E89409C097FB3EF49095A2
:100630008095709561957F4F8F4F9F4F9923A9F0BB
:10064000F92F96E9BB279395F6958795779567954A
:10065000B795F111F8CFFAF4BB0F11F460FF1BC08E
:100660006F5F7F4F8F4F9F4F16C0882311F096E921
:1006700011C0772321F09EE8872F762F05C06623CF
:1006800071F096E8862F70E060E02AF09A95660F88
:10069000771F881FDAF7880F9695879597F9089541
:1006A000990F0008550FAA0BE0E8FEEF1616170683
:1006B000E807F907C0F012161306E407F50798F0EB
:1006C000621B730B840B950B39F40A2661F0232B04
:1006D000242B252B21F408950A2609F4A140A69580
:1006E0008FEF811D811D089597F99F6780E870E065
:1006F00060E008959FEF80EC089500240A94161698
:10070000170618060906089500240A9412161306FF
:10071000140605060895092E0394000C11F488238D
:1007200052F0BB0F40F4BF2B11F460FF04C06F5FA9
:100730007F4F8F4F9F4F089557FD9058440F551F7F
:1007400059F05F3F71F04795880F97FB991F61F053
:100750009F3F79F087950895121613061406551FCA
:10076000F2CF4695F1DF08C0161617061806991F36
:10077000F1CF86957105610508940895E894BB272B
:1007800066277727CB0197F908950E94D8030C9428
:100790008B030E947D0338F00E94840320F0952390
:1007A00011F00C9474030C947A0311240C94BF037D
:1007B0000E949C0370F3959FC1F3950F50E0551F65
:1007C000629FF001729FBB27F00DB11D639FAA27A6
:1007D000F00DB11DAA1F649F6627B00DA11D661FF5
:1007E000829F2227B00DA11D621F739FB00DA11D16
:1007F000621F839FA00D611D221F749F3327A00DD0
:10080000611D231F849F600D211D822F762F6A2F6B
:1008100011249F5750409AF0F1F088234AF0EE0FD0
:10082000FF1FBB1F661F771F881F91505040A9F7FD
:100830009E3F510580F00C9474030C94BF035F3FFE
:10084000E4F3983ED4F3869577956795B795F79539
:10085000E7959F5FC1F7FE2B880F911D96958795B1
:1008600097F90895B0E0A0E0E8E3F4E00C94F8060E
:10087000AE01475F5F4F6F8178858D819E810E94B9
:100880006C04E2E00C941407EF92FF920F931F9315
:10089000CF93DF938B01DB0113962C91F12CE12C8C
:1008A00021FD10C0EE24EA94FE2C10C0D801189649
:1008B000ED91FC91B8010995892B19F0EE24EA9489
:1008C000FE2CCE01EC0189918111F0CFC701CDB78B
:1008D000DEB7E6E00C941007AFE0B0E0E2E7F4E04A
:1008E0000C94E8067C013B018A01DC0117961C92FE
:1008F0001E92169713968C9181FFC3C19AE0292E00
:10090000FE0131964F01D70113969C91F30193FD9F
:10091000859193FF81913F01882309F448C1853275
:1009200039F493FD859193FF81913F01853229F43C
:10093000B70190E00E945A06E6CFB12C412C512C11
:10094000BFE1B51538F08B3209F188F4803201F13E
:10095000833221F157FC3AC020ED280F2A3040F5B0
:1009600056FE1FC0B29C200D1124B22E06C08D323F
:1009700091F0803379F7689450F8F30193FD8591F5
:1009800093FF81913F018111DBCF20C0689451F822
:10099000689452F8F2CF689453F8EFCF689454F803
:1009A000ECCF429C200D1124422E689455F8E5CFDF
:1009B0008E3229F456FCFBC0689456F8DECF8C3694
:1009C00019F4689457F8D9CF8836B9F2982F9F7DDB
:1009D00095549330C0F08336A1F18337C1F183354C
:1009E00009F05BC0D801CD90DD908D016B2D70E0DA
:1009F00056FC02C06FEF7FEFC6010E9444065C0107
:100A0000689457F80AC00C5F1F4FEFE3E983AA24EC
:100A1000A394B12C6401E89457F853FC04C04A1421
:100A20001B0409F018F5342CA114B10431F533205E
:100A300009F469CFB70180E290E00E945A063A9427
:100A4000F6CFD8018C9189830E5F1F4FE0CFF8015C
:100A5000C190D1908F016B2D70E056FC02C06FEFFA
:100A60007FEFC6010E944F065C01D5CFB70180E23F
:100A700090E00E945A064A94D2CFF60157FC859125
:100A800057FE81916F01B70190E00E945A06311024
:100A90003A94B1E0AB1AB108C7CF843619F0893661
:100AA00009F074C0F80157FE6AC06191719181919B
:100AB00091918F01E52DEF76DE2E97FF09C090957D
:100AC0008095709561957F4F8F4F9F4F6894D7F8B1
:100AD0002AE030E0A4010E948A06C82EC818AC2C77
:100AE0005D2CD6FE0CC0E89450F8CB1440F4D4FE34
:100AF00005C0D2FC03C05D2D5E7E552EAB2C54FE8E
:100B000098C0FE01EC0DF11D8081803309F08AC090
:100B1000652D697E562E752D7870372E53FC98C042
:100B200050FE92C0BC2CA41418F44C0CB42CBA186F
:100B300054FE94C0B70180E390E00E945A0652FE32
:100B400009C088E790E051FE02C088E590E0B70157
:100B50000E945A06CB1408F48DC0CA94D12C8FEF92
:100B6000C81AD80AC80CD91CD6018E916D01B701DC
:100B700090E00E945A068C149D04B1F758CF619101
:100B80007191072E000C880B990B93CFD52CE8940C
:100B9000D4F82AE030E0853739F1F52DF97FDF2EE2
:100BA0008037A9F058F48835A9F08F36D9F0F701CD
:100BB000868197812F96E2E10C9404078837B9F774
:100BC000D4FE02C06894D2F820E130E00DC06894F1
:100BD000D4F8F6CF54FE03C02F2F2660D22E20E18A
:100BE00032E002C028E030E0F801D7FE15C04191A4
:100BF0005191619171914C875D876E877F878F01DD
:100C0000A4016C857D858E859F850E948A06C82EED
:100C1000C818E894D7F863CF81919191AC0170E046
:100C200060E0E9CF52FC02C0A39475CFA394A394D3
:100C300072CF852D867809F46ECFF6CFB70180E2AA
:100C400090E00E945A06A394A414C0F3312C70CFF4
:100C5000342C3A18A41408F46BCFF8CF852D86787D
:100C600009F478CF8BE251FE80E257FC8DE2B701A8
:100C700090E06ECFB70180E390E00E945A06BA94EC
:100C800069CF8FEF9FEF96CFFC01059061507040C8
:100C90000110D8F7809590958E0F9F1F0895FC0145
:100CA0006150704001900110D8F7809590958E0F9B
:100CB0009F1F08950F931F93CF93DF93182F092F32
:100CC000EB018B8181FD09C01FEF0FEF812F902F6A
:100CD000DF91CF911F910F91089582FF14C02E8153
:100CE0003F818C819D81281739073CF4E881F98187
:100CF000CF0101969983888310838E819F8101960D
:100D00009F838E83E3CFE885F985812F0995892B11
:100D1000A1F3DACFFA01AA27283051F1203181F16D
:100D2000E8946F936E7F6E5F7F4F8F4F9F4FAF4FF3
:100D3000B1E03ED0B4E03CD0670F781F891F9A1F06
:100D4000A11D680F791F8A1F911DA11D6A0F711DBA
:100D5000811D911DA11D20D009F468943F912AE0C6
:100D6000269F11243019305D3193DEF6CF010895AE
:100D7000462F4770405D4193B3E00FD0C9F7F6CFDF
:100D8000462F4F70405D4A3318F0495D31FD4052A7
:100D9000419302D0A9F7EACFB4E0A695979587953D
:100DA00077956795BA95C9F700976105710508951C
:100DB0009B01AC010A2E06945795479537952795C8
:100DC000BA95C9F7620F731F841F951FA01D089560
:100DD0002F923F924F925F926F927F928F929F924B
:100DE000AF92BF92CF92DF92EF92FF920F931F9339
:100DF000CF93DF93CDB7DEB7CA1BDB0B0FB6F894EA
:100E0000DEBF0FBECDBF09942A88398848885F8429
:100E10006E847D848C849B84AA84B984C884DF809A
:100E2000EE80FD800C811B81AA81B981CE0FD11D7E
:100E30000FB6F894DEBF0FBECDBFED010895F89454
:020E4000FFCFE2
:100E420000000002000000001A0100000000F82566
:100E5200640A0D0074656E73616F206461206261C3
:0E0E620074657269612063616975210A0D0073
:00000001FF
