:100000000C9434000C9451000C9451000C94510049
:100010000C9451000C9451000C9451000C9451001C
:100020000C9451000C9451000C9451000C9451000C
:100030000C9451000C9451000C9451000C945100FC
:100040000C9451000C9451000C9451000C945100EC
:100050000C947F010C9451000C9451000C945100AD
:100060000C94F2000C94510011241FBECFEFD8E085
:10007000DEBFCDBF11E0A0E0B1E0E4E0F3E002C0FC
:1000800005900D92A031B107D9F721E0A0E1B1E0D0
:1000900001C01D92A731B207E1F70E9453000C94F2
:1000A00080010C9400000E9472000E947C007894F1
:1000B000C1E08C2F0E946700C65F2FE88CED91E0B5
:1000C000215080409040E1F700C00000F2CF97B58A
:1000D000981708F088BD9091B300981710F080939E
:1000E000B4000895559A83E284BD89E085BD88EC0B
:1000F00087BD86E988BD0895539AE0EBF0E083E27E
:10010000808389E0818388EC838386E984830895F2
:100110008CE284B981E78CBD08958EBD0DB407FED5
:10012000FDCF8EB508950C948D0084E88093B800BF
:100130008FEF8093BB0084E08093BC000895809192
:10014000BC00817008958091BC0080FDFCCF80913F
:1001500000010895FC018091BC0080FDFCCF6093FC
:10016000120180818093130180FF15C0109211014C
:1001700088EF8093000185EA8093BC000895DF0139
:10018000A80FB91F2C91DC01AD5EBE4F2C930196D8
:100190008617A8F3EBCF90E080E0F9CF8091BC0008
:1001A00080FDFCCF1092110188EF8093000185EA59
:1001B0008093BC0008952091BC0020FDFCCF2091CD
:1001C000110120FF08C023E131E0FC01D9018A2F91
:1001D000821B861720F080911101817008958D9106
:1001E0008193F5CF1F921FB61F9211242F938F93E7
:1001F0009F93EF93FF938091B900883309F45DC01A
:1002000010F5883169F050F48830C1F18031B1F1D6
:100210008091B9008093000184E025C08832C1F745
:10022000E091100180911201E81708F03FC081E0D1
:100230008E0F80931001F0E0ED5EFE4F8081809381
:10024000BB0085E810C08035E1F0883539F1803495
:10025000F9F620911001809112018150990B281715
:1002600019067CF785EC8093BC00FF91EF919F917C
:100270008F912F911F901FBE1F9018951092100103
:10028000CFCFE091100181E08E0F8093100180911B
:10029000BB00F0E0ED5EFE4F8083DBCF8091BB00C2
:1002A000E0911001F0E0ED5EFE4F8083809111013E
:1002B00081608093110184E9D6CF85EAD4CF81E0B3
:1002C00091E00895E0ECF0E095838483108288E962
:1002D000818386E0828308959091C00095FFFCCFD2
:1002E0008093C60008950E946C0190E080E008951C
:1002F0008091C00087FFFCCF8091C60008951895BB
:04030000F894FFCF9F
:10030400F80000000200000000730100000000007B
:00000001FF
