:100000000C9434000C9451000C9451000C94510049
:100010000C9451000C9451000C9451000C9451001C
:100020000C9451000C9451000C9451000C9451000C
:100030000C9451000C9451000C9451000C945100FC
:100040000C9451000C9451000C9426010C94510016
:100050000C9427010C9451000C9451000C94510005
:100060000C9474020C94510011241FBECFEFD8E001
:10007000DEBFCDBF11E0A0E0B1E0E2ECFEE002C0E7
:1000800005900D92A436B107D9F721E0A4E6B1E0BE
:1000900001C01D92AF36B207E1F70E9428010C940F
:1000A0005F070C940000E8E7F0E080E484838FEEC3
:1000B00082838681816086838781826087830895B9
:1000C000CF93DF930F92CDB7DEB789838981809379
:1000D0006401ECE7F0E0808190916401887F892BD6
:1000E00080830F90DF91CF910895EF92FF920F934D
:1000F0001F93CF93DF9300D000D000D00F92CDB7E5
:10010000DEB78D839E83CB01B0E0A0E089839A8324
:10011000AB83BC83CD010E9453032FEF3FEF4FE928
:100120005BE369837A838B839C8369817A818B818A
:100130009C810E9405047B018C0120E030E0A90134
:100140006983FA828B831C8369817A818B819C818C
:100150000E944E0318160CF049C0AD81BE81CD013E
:10016000B0E0A0E089839A83AB83BC83BC01CD015E
:100170000E9453032FEF3FEF4FE95BE369837A83DC
:100180008B839C8369817A818B819C810E94050489
:100190009701A80169837A838B839C8369817A8123
:1001A0008B819C810E94E102B1E0BF831D8220E02F
:1001B00030E0A90169837A838B839C8369817A818A
:1001C0008B819C810E944E0318160CF41F828F8134
:1001D0009D8127960FB6F894DEBF0FBECDBFDF918D
:1001E000CF911F910F91FF90EF90089581E090E0E3
:1001F000F0CF8CE284B981E78CBD08958EBD0DB43B
:1002000007FEFDCF8EB508950C94FE0080E091E0CE
:100210000895E0ECF0E095838483108288E981837F
:1002200086E0828308959091C00095FFFCCF809373
:10023000C60008950E94130190E080E00895809127
:10024000C00087FFFCCF8091C600089518951895CF
:100250000E940601182FD92F87E690E00E9409011D
:100260000E94D6017894C8EC8FE0E82E81E0F82E49
:1002700001E00E941F0180936E018835A9F500936B
:10028000650180916E018033C9F08133C9F08233FA
:10029000C9F08333C9F08433C9F08533C9F086339C
:1002A000C9F08733C9F08833C9F08933C9F0813781
:1002B000C9F08434F1F60E941002DBCFC0E0D9CF40
:1002C000C9E1D7CFC2E3D5CFCBE4D3CFC4E6D1CFFA
:1002D000CDE7CFCFC6E9CDCFCFEACBCFC8ECC9CFE2
:1002E000C1EEC7CFCFEFC5CF883749F41092650173
:1002F000612F7D2F83E591E00E948404BACF909115
:1003000065019130A9F78634A9F46C2F8C2F0E94D7
:10031000E30180916E011F928F93FF92EF92DF9322
:100320001F930E9472040F900F900F900F900F90E8
:100330000F90A7CF823429F46C2F8C2F0E94ED01EF
:10034000E8CF8C3429F46C2F8C2F0E940402E1CF6B
:10035000823529F46C2F8C2F0E94F801DACF873474
:1003600039F4612F7D2F84E191E00E94840489CFCC
:10037000893429F4612F7D2F8AE291E0F6CF883409
:1003800029F4612F7D2F8FE391E0EFCF8A34C9F3F9
:10039000833509F076CF1F928F93FF92EF92DF9310
:1003A0001F930E9472040E941002BDCF8AB188661A
:1003B0008AB9239A83E084BD85BDE0EBF0E08083B9
:1003C00084E08183089593E894BDE0EBF0E09083AE
:1003D00087BD18BC63831482089593E294BDE0EB5B
:1003E000F0E090839FEF97BD88BD93836483089569
:1003F00093E894BDE0EBF0E093E2908387BD18BCF6
:100400008FEF83836483089593E294BDE0EBF0E083
:1004100093E890839FEF97BD88BD6383148208950E
:1004200017BC18BCE0EBF0E013821482089584E856
:100430008093B8008FEF8093BB0084E08093BC0072
:1004400008958091BC00817008958091BC0080FD6A
:10045000FCCF80910E010895FC018091BC0080FDCD
:10046000FCCF60936901808180936A0180FF15C091
:100470001092680188EF80930E0185EA8093BC009A
:100480000895DF01A80FB91F2C91DC01A659BE4FBA
:100490002C9301968617A8F3EBCF90E080E0F9CF7C
:1004A0008091BC0080FDFCCF1092680188EF8093A2
:1004B0000E0185EA8093BC0008952091BC0020FDC8
:1004C000FCCF2091680120FF08C02AE631E0FC0142
:1004D000D9018A2F821B861720F0809168018170D4
:1004E00008958D918193F5CF1F921FB61F9211240D
:1004F0002F938F939F93EF93FF938091B90088334D
:1005000009F45DC010F5883169F050F48830C1F10C
:100510008031B1F18091B90080930E0184E025C053
:100520008832C1F7E091670180916901E81708F00E
:100530003FC081E08E0F80936701F0E0E659FE4FE7
:1005400080818093BB0085E810C08035E1F088355C
:1005500039F18034F9F62091670180916901815069
:10056000990B281719067CF785EC8093BC00FF9146
:10057000EF919F918F912F911F901FBE1F90189503
:1005800010926701CFCFE091670181E08E0F8093D9
:1005900067018091BB00F0E0E659FE4F8083DBCF1E
:1005A0008091BB00E0916701F0E0E659FE4F808347
:1005B0008091680181608093680184E9D6CF85EAE3
:1005C000D4CF5058BB27AA270E94F9020C94CB0322
:1005D0000E94BD0338F00E94C40320F039F49F3F0D
:1005E00019F426F40C94BA030EF4E095E7FB0C948E
:1005F000B403E92F0E94DC0358F3BA1762077307AC
:100600008407950720F079F4A6F50C94FE030EF408
:10061000E0950B2EBA2FA02D0B01B90190010C0112
:10062000CA01A0011124FF27591B99F0593F50F42A
:10063000503E68F11A16F040A22F232F342F442782
:10064000585FF3CF469537952795A795F04053957A
:10065000C9F77EF41F16BA0B620B730B840BBAF04A
:100660009150A1F0FF0FBB1F661F771F881FC2F7B5
:100670000EC0BA0F621F731F841F48F487957795C9
:100680006795B795F7959E3F08F0B0CF9395880F83
:1006900008F09927EE0F9795879508950E9490038B
:1006A00008F481E00895E89409C097FB3EF4909522
:1006B0008095709561957F4F8F4F9F4F9923A9F03B
:1006C000F92F96E9BB279395F695879577956795CA
:1006D000B795F111F8CFFAF4BB0F11F460FF1BC00E
:1006E0006F5F7F4F8F4F9F4F16C0882311F096E9A1
:1006F00011C0772321F09EE8872F762F05C066234F
:1007000071F096E8862F70E060E02AF09A95660F07
:10071000771F881FDAF7880F9695879597F90895C0
:10072000990F0008550FAA0BE0E8FEEF1616170602
:10073000E807F907C0F012161306E407F50798F06A
:10074000621B730B840B950B39F40A2661F0232B83
:10075000242B252B21F408950A2609F4A140A695FF
:100760008FEF811D811D089597F99F6780E870E0E4
:1007700060E008959FEF80EC089500240A94161617
:10078000170618060906089500240A94121613067F
:10079000140605060895092E0394000C11F488230D
:1007A00052F0BB0F40F4BF2B11F460FF04C06F5F29
:1007B0007F4F8F4F9F4F089557FD9058440F551FFF
:1007C00059F05F3F71F04795880F97FB991F61F0D3
:1007D0009F3F79F087950895121613061406551F4A
:1007E000F2CF4695F1DF08C0161617061806991FB6
:1007F000F1CF86957105610508940895E894BB27AB
:1008000066277727CB0197F908950E9418040C9466
:10081000CB030E94BD0338F00E94C40320F095234F
:1008200011F00C94B4030C94BA0311240C94FF033C
:100830000E94DC0370F3959FC1F3950F50E0551FA4
:10084000629FF001729FBB27F00DB11D639FAA2725
:10085000F00DB11DAA1F649F6627B00DA11D661F74
:10086000829F2227B00DA11D621F739FB00DA11D95
:10087000621F839FA00D611D221F749F3327A00D4F
:10088000611D231F849F600D211D822F762F6A2FEB
:1008900011249F5750409AF0F1F088234AF0EE0F50
:1008A000FF1FBB1F661F771F881F91505040A9F77D
:1008B0009E3F510580F00C94B4030C94FF035F3FFE
:1008C000E4F3983ED4F3869577956795B795F795B9
:1008D000E7959F5FC1F7FE2B880F911D9695879531
:1008E00097F90895B0E0A0E0E8E7F4E00C94380749
:1008F000AE01475F5F4F6F8178858D819E810E9439
:10090000AC04E2E00C945407EF92FF920F931F9314
:10091000CF93DF938B01DB0113962C91F12CE12C0B
:1009200021FD10C0EE24EA94FE2C10C0D8011896C8
:10093000ED91FC91B8010995892B19F0EE24EA9408
:10094000FE2CCE01EC0189918111F0CFC701CDB70A
:10095000DEB7E6E00C945007AFE0B0E0E2EBF4E085
:100960000C9428077C013B018A01DC0117961C923C
:100970001E92169713968C9181FFC3C19AE0292E7F
:10098000FE0131964F01D70113969C91F30193FD1F
:10099000859193FF81913F01882309F448C18532F5
:1009A00039F493FD859193FF81913F01853229F4BC
:1009B000B70190E00E949A06E6CFB12C412C512C51
:1009C000BFE1B51538F08B3209F188F4803201F1BE
:1009D000833221F157FC3AC020ED280F2A3040F530
:1009E00056FE1FC0B29C200D1124B22E06C08D32BF
:1009F00091F0803379F7689450F8F30193FD859175
:100A000093FF81913F018111DBCF20C0689451F8A1
:100A1000689452F8F2CF689453F8EFCF689454F882
:100A2000ECCF429C200D1124422E689455F8E5CF5E
:100A30008E3229F456FCFBC0689456F8DECF8C3613
:100A400019F4689457F8D9CF8836B9F2982F9F7D5A
:100A500095549330C0F08336A1F18337C1F18335CB
:100A600009F05BC0D801CD90DD908D016B2D70E059
:100A700056FC02C06FEF7FEFC6010E9484065C0146
:100A8000689457F80AC00C5F1F4FEFE3E983AA246C
:100A9000A394B12C6401E89457F853FC04C04A14A1
:100AA0001B0409F018F5342CA114B10431F53320DE
:100AB00009F469CFB70180E290E00E949A063A9467
:100AC000F6CFD8018C9189830E5F1F4FE0CFF801DC
:100AD000C190D1908F016B2D70E056FC02C06FEF7A
:100AE0007FEFC6010E948F065C01D5CFB70180E27F
:100AF00090E00E949A064A94D2CFF60157FC859165
:100B000057FE81916F01B70190E00E949A06311063
:100B10003A94B1E0AB1AB108C7CF843619F08936E0
:100B200009F074C0F80157FE6AC06191719181911A
:100B300091918F01E52DEF76DE2E97FF09C09095FC
:100B40008095709561957F4F8F4F9F4F6894D7F830
:100B50002AE030E0A4010E94CA06C82EC818AC2CB6
:100B60005D2CD6FE0CC0E89450F8CB1440F4D4FEB3
:100B700005C0D2FC03C05D2D5E7E552EAB2C54FE0D
:100B800098C0FE01EC0DF11D8081803309F08AC010
:100B9000652D697E562E752D7870372E53FC98C0C2
:100BA00050FE92C0BC2CA41418F44C0CB42CBA18EF
:100BB00054FE94C0B70180E390E00E949A0652FE72
:100BC00009C088E790E051FE02C088E590E0B701D7
:100BD0000E949A06CB1408F48DC0CA94D12C8FEFD2
:100BE000C81AD80AC80CD91CD6018E916D01B7015C
:100BF00090E00E949A068C149D04B1F758CF619141
:100C00007191072E000C880B990B93CFD52CE8948B
:100C1000D4F82AE030E0853739F1F52DF97FDF2E61
:100C20008037A9F058F48835A9F08F36D9F0F7014C
:100C3000868197812F96E2E10C9444078837B9F7B3
:100C4000D4FE02C06894D2F820E130E00DC0689470
:100C5000D4F8F6CF54FE03C02F2F2660D22E20E109
:100C600032E002C028E030E0F801D7FE15C0419123
:100C70005191619171914C875D876E877F878F015C
:100C8000A4016C857D858E859F850E94CA06C82E2D
:100C9000C818E894D7F863CF81919191AC0170E0C6
:100CA00060E0E9CF52FC02C0A39475CFA394A39453
:100CB00072CF852D867809F46ECFF6CFB70180E22A
:100CC00090E00E949A06A394A414C0F3312C70CF34
:100CD000342C3A18A41408F46BCFF8CF852D8678FD
:100CE00009F478CF8BE251FE80E257FC8DE2B70128
:100CF00090E06ECFB70180E390E00E949A06BA942C
:100D000069CF8FEF9FEF96CFFC0105906150704047
:100D10000110D8F7809590958E0F9F1F0895FC01C4
:100D20006150704001900110D8F7809590958E0F1A
:100D30009F1F08950F931F93CF93DF93182F092FB1
:100D4000EB018B8181FD09C01FEF0FEF812F902FE9
:100D5000DF91CF911F910F91089582FF14C02E81D2
:100D60003F818C819D81281739073CF4E881F98106
:100D7000CF0101969983888310838E819F8101968C
:100D80009F838E83E3CFE885F985812F0995892B91
:100D9000A1F3DACFFA01AA27283051F1203181F1ED
:100DA000E8946F936E7F6E5F7F4F8F4F9F4FAF4F73
:100DB000B1E03ED0B4E03CD0670F781F891F9A1F86
:100DC000A11D680F791F8A1F911DA11D6A0F711D3A
:100DD000811D911DA11D20D009F468943F912AE046
:100DE000269F11243019305D3193DEF6CF0108952E
:100DF000462F4770405D4193B3E00FD0C9F7F6CF5F
:100E0000462F4F70405D4A3318F0495D31FD405226
:100E1000419302D0A9F7EACFB4E0A69597958795BC
:100E200077956795BA95C9F700976105710508959B
:100E30009B01AC010A2E0694579547953795279547
:100E4000BA95C9F7620F731F841F951FA01D0895DF
:100E50002F923F924F925F926F927F928F929F92CA
:100E6000AF92BF92CF92DF92EF92FF920F931F93B8
:100E7000CF93DF93CDB7DEB7CA1BDB0B0FB6F89469
:100E8000DEBF0FBECDBF09942A88398848885F84A9
:100E90006E847D848C849B84AA84B984C884DF801A
:100EA000EE80FD800C811B81AA81B981CE0FD11DFE
:100EB0000FB6F894DEBF0FBECDBFED010895F894D4
:020EC000FFCF62
:100EC20000000002000000001A0100000000F825E6
:100ED200630A0D006375727661207061726120652C
:100EE200737175657264610A0D00637572766120B3
:100EF2007061726120646972656974610A0D0072C1
:100F020065682070617261206573717565726461D4
:100F12000A0D00616E64616E646F20736F7A696E90
:040F2200686F0A00EA
:00000001FF
